:1000000019C1000048C1000046C1000044C1000001
:1000100042C1000040C100003EC100003CC10000E0
:100020003AC1000038C1000036C1000034C10000F0
:1000300032C1000030C100002EC100002CC1000000
:100040002AC100000C941E0D26C1000024C100002E
:1000500022C1000020C100001EC100000C94660AED
:100060001AC1000062C5000096C5000014C100005E
:1000700012C1000010C100000EC100000CC1000040
:100080000C944B0D08C1000006C1000004C1000023
:10009000F7C500002BC60000FEC00000FCC0000039
:1000A000FAC00000F8C000000C94780DF4C0000005
:1000B000F2C00000F0C00000EEC000000C94A50DDE
:1000C000EAC00000E8C00000E6C0000084C60000EE
:1000D000B8C60000E0C00000DEC00000DCC00000C8
:1000E000DAC0000020032203240331033303470353
:1000F0003B037D039F03800393039503B703B5037D
:10010000B50BB80BA70BAB0BB10BEF0BBC0BC00BBC
:10011000C60BCA0BCE0BD40BD80BDC0BEF0BE20BD0
:10012000E60BEA0B00000A0B02090C0D0E08070390
:1001300004010000000000000000000000000000BA
:1001400000000000000000000000000000000000AF
:10015000121110000000000000000000000000006C
:100160000000000000000000000001021020200834
:100170000810204010204080020102010804020102
:100180000102040810204080804020100804020171
:1001900080040201804020100804020108040201CA
:1001A0000102040810204080010204081020408051
:1001B00005050505070508080808020202020A0AE3
:1001C0000808040404040101010101010101030301
:1001D000030303030303040707070C0C0C0C0C0CAC
:1001E0000C0C0202020206060606060606060B0BA9
:1001F0000B0B0B0B0B0B00002200250028002B0023
:100200002E003100340002010000050108010B013D
:1002100000002100240027002A002D0030003300B8
:1002200001010000040107010A01F203FD05A8060F
:1002300053070E0411241FBECFEFD1E2DEBFCDBFA6
:1002400000E00CBF12E0A0E0B2E0E4EEF4E200E077
:100250000BBF02C007900D92AE3AB107D9F725E067
:10026000AEEAB2E001C01D92A23AB207E1F712E095
:10027000C2E3D2E000E006C022970109FE010BBFF5
:100280000E94E40FCA32D10780E00807A9F70E9454
:100290005B0A0C946112B4CECF93DF938FEA92E0A5
:1002A0004FD7C1EFD2E02697CE014AD782E0C53BB7
:1002B000D807C9F7DF91CF91089526E040E052ECCE
:1002C00061E070E089E293E0CED326E040E052ECBA
:1002D00061E070E083E694E0C6D364E670E080E01D
:1002E00090E00E94DF0A68E070E084E293E00E9400
:1002F0009B0E69E070E081E293E00E949B0E64E651
:1003000070E081E293E00E94D30E65E172E089E241
:1003100093E055D668EB7BE080E090E00C94DF0A38
:10032000CF92DF92EF92FF920F931F93CF93DF93C1
:1003300000D000D0CDB7DEB78C01C62E1092F202ED
:100340001092F10286E0D82E6C2DC8010E940A0A94
:100350007C018FEFE816F806C9F1970140E050E004
:10036000B801CE0101960E940D0A2091F102309150
:10037000F202D29EC001D39E900D1124BE016F5F88
:100380007F4F8B549D4FACD7CE010196D9D680912B
:10039000F1029091F20201969093F2028093F102A1
:1003A000F80124813581A7014F5F5F4FB801CE016D
:1003B00001960E940D0ABE016F5F7F4FC80190D762
:1003C000CE010196BDD6F7FEBFCF2AC0F8018481C9
:1003D0009581892B29F12FEF3FEF40E050E0B801E4
:1003E000CE0101960E940D0A2091F1023091F20295
:1003F00046E0429FC001439F900D1124BE016F5FF4
:100400007F4F8B549D4F6CD7CE01019699D680912A
:10041000F1029091F20201969093F2028093F10220
:1004200026960FB6F894DEBF0FBECDBFDF91CF91F9
:100430001F910F91FF90EF90DF90CF900895CF9391
:10044000DF936FE972E08FEA92E055D71092AE0227
:10045000C5EBD2E06FE972E0CE014DD7269682E07F
:10046000C13FD807B9F7DF91CF910895CF93DF93BC
:1004700000D000D0CDB7DEB78091AE02882309F45A
:1004800038C06FEA72E0CE01019622D76BE3CE014D
:10049000019646DFCE01019653D660E272E085EB0D
:1004A00092E07DD7882341F062E272E089E293E036
:1004B00086D5C5DF81E01EC06DE272E085EB92E07B
:1004C0006ED78823A9F08BEB92E0EAD77093FE02F7
:1004D0006093FD0281EC92E0E3D77093FC0260939D
:1004E000FB0287EC92E0DCD77093FA026093F9028A
:1004F000A6DF80E026960FB6F894DEBF0FBECDBF14
:10050000DF91CF910895CF93DF93C0912703D091CE
:100510002803209739F1C130D10509F041C060EDC1
:1005200077E080E090E00E94DF0A809108029091DD
:1005300009029093F8028093F70280910D03909145
:100540000E039093F6028093F5028091010390913F
:1005500002039093F4028093F302D0931302C093AA
:1005600012021EC080910602909107029093F80239
:100570008093F70280910B0390910C039093F60205
:100580008093F5028091FF02909100039093F40212
:100590008093F30281E090E0909313028093120223
:1005A000DF91CF9108956FE272E083E694E0FCC49E
:1005B000EF92FF920F931F93CF93DF937C018B01F8
:1005C000EA018091170390911803892B51F562E39A
:1005D00072E083E694E0E8D44AE050E0B70183E6B5
:1005E00094E091D565E372E083E694E0DDD44AE0DF
:1005F00050E0B80183E694E086D565E372E083E6D7
:1006000094E0D2D44AE050E0BE0183E694E082D583
:10061000809117039091180301979093180380938A
:100620001703DF91CF911F910F91FF90EF900895E5
:1006300087309105A0F5FC01EE58FF4F0C94D40FC4
:1006400080E412C08EE310C08EE30E94780B8D32DE
:1006500091403CF580E40E94780B8D3291400CF57E
:100660001EC08FE301C081E40E94780B21E08D322F
:100670009140C4F414C08EE30E94780B8D329140F7
:1006800084F480E40E94780B8D32914054F481E42C
:100690000E94780B8D32914024F48FE3DCCF20E070
:1006A00001C021E0822F08950F931F9380911202C1
:1006B00090911302892B09F489C052D700911D0330
:1006C00010911E0320911F0330912003601B710BBA
:1006D000820B930B60397F458140910508F06DC016
:1006E000E0911202F09113023197E730F10508F022
:1006F0004BC0E758FF4F0C94D40F82E090E021C02C
:100700002FD70091190310911A0320911B033091E8
:100710001C03601B710B820B930B693B7B408105B3
:100720009105C0F131C0EFDE35C080912703909173
:1007300028030196909328038093270325C085E022
:1007400090E076DF882319F086E090E01FC04091AA
:10075000F3025091F4026091F5027091F6028091DB
:10076000F7029091F80224DF15C01DDF13C01BDFD4
:10077000F7D66093190370931A0380931B03909329
:100780001C0383E090E002C084E090E090931302A9
:10079000809312026BDE882311F1809117039091F0
:1007A00018030196909318038093170385E090E057
:1007B000909313028093120212C087E090E090930E
:1007C0001302809312021F910F91EDCEC9D6609350
:1007D0001D0370931E0380931F03909320031F91AA
:1007E0000F910895CF93DF9384E293E00E94D20D9E
:1007F00081E293E00E94D20DC5EBD2E06FE972E096
:10080000CE0107D5269682E0C13FD807B9F76FE938
:1008100072E08FEA92E0DF91CF91FBC43DCDCF93A0
:10082000DF93D1E083E694E012D0892B69F083E670
:1008300094E026D0C82F682F8FEA92E09DD5CA3069
:1008400089F7D093AE02EECFDF91CF910895FC01EE
:10085000818D228D90E0805C9F4F821B91098F7368
:1008600099270895FC01918D828D981731F0828D22
:10087000E80FF11D858D90E008958FEF9FEF0895AB
:10088000FC01918D828D981761F0828DDF01A80F98
:10089000B11D5D968C91928D9F5F9F73928F90E0BA
:1008A00008958FEF9FEF089584EF95E0892B39F03D
:1008B00080E090E0892B19F097D1811123C08FE956
:1008C00096E0892B39F080E090E0892B19F037D23F
:1008D00081111BC08AE497E0892B39F08FE094E006
:1008E000892B19F0D7D2811113C080E090E0892BB9
:1008F00099F080E090E0892B79F00E94000081114E
:1009000009C008950E940000DACF0E940000E2CFE3
:1009100086DFEBCF0C9400000895FC01848DDF018D
:10092000A80FB11DA35ABF4F2C91848D90E0019662
:100930008F739927848FA689B7892C93A089B18951
:100940008C9180648C93938D848D981306C002885B
:10095000F389E02D80818F7D80830895CF93DF938D
:10096000EC01888D8823C1F0EA89FB89808185FDAF
:1009700005C0A889B9898C9186FD0EC00FB607FC09
:10098000F5CF808185FFF2CFA889B9898C9185FF49
:10099000EDCFCE01C2DFE8CFDF91CF910895CF92A6
:1009A000DF92FF920F931F93CF93DF931F92CDB7E8
:1009B000DEB76C0181E0D60158968C9358975B9610
:1009C0009C915B975C968C915C97981307C05096AE
:1009D000ED91FC915197808185FD2DC0F601038D2D
:1009E00010E00F5F1F4F0F731127F02EF601848D5B
:1009F000F81210C00FB607FCF9CFD6015096ED9152
:100A0000FC915197808185FFF1CFC601698385DF15
:100A10006981ECCF838DE80FF11DE35AFF4F6083AE
:100A2000D6015B960C935B975296ED91FC91539790
:100A3000808180620CC0D6015696ED91FC9157974B
:100A400060835096ED91FC91519780818064808302
:100A500081E090E00F90DF91CF911F910F91FF9077
:100A6000DF90CF900895BF92CF92DF92EF92FF92E6
:100A7000CF93DF93EC016A017B01B22EE889F989FB
:100A800082E08083411581EE580761057105A1F070
:100A900060E079E08DE390E0A70196010E94960F57
:100AA00021503109410951095695479537952795A8
:100AB000211580E1380798F0E889F989108260E80B
:100AC00074E88EE190E0A70196010E94960F2150F4
:100AD0003109410951095695479537952795EC8578
:100AE000FD853083EE85FF852083188EEC89FD8996
:100AF000B082EA89FB89808180618083EA89FB89F1
:100B0000808188608083EA89FB8980818068808316
:100B1000EA89FB8980818F7D8083DF91CF91FF906F
:100B2000EF90DF90CF90BF9008951F920F920FB675
:100B30000F9211240BB60F922F938F939F93EF93E5
:100B4000FF93E0913903F0913A038081E0913F03F4
:100B5000F091400382FD12C09081809142038F5F2B
:100B60008F7320914303821751F0E0914203F0E02C
:100B7000E75DFC4F958F8093420301C08081FF9118
:100B8000EF919F918F912F910F900BBE0F900FBE01
:100B90000F901F9018951F920F920FB60F9211246D
:100BA0000BB60F922F933F934F935F936F937F9367
:100BB0008F939F93AF93BF93EF93FF9389E293E05B
:100BC000ACDEFF91EF91BF91AF919F918F917F919B
:100BD0006F915F914F913F912F910F900BBE0F90AE
:100BE0000FBE0F901F90189589E293E030DE21E050
:100BF000892B09F420E0822F089510922C03109283
:100C00002B0388EE93E0A0E0B0E080932D03909357
:100C10002E03A0932F03B093300381E992E09093C9
:100C20002A038093290385EC90E090933603809308
:100C3000350384EC90E0909338038093370380EC85
:100C400090E090933A038093390381EC90E0909385
:100C50003C0380933B0382EC90E090933E038093AF
:100C60003D0386EC90E09093400380933F03109205
:100C700042031092430310924403109245030895D7
:100C80001F920F920FB60F9211240BB60F922F9353
:100C90008F939F93EF93FF93E091D603F091D70347
:100CA0008081E091DC03F091DD0382FD12C0908130
:100CB0008091DF038F5F8F732091E003821751F0E3
:100CC000E091DF03F0E0EA53FC4F958F8093DF0360
:100CD00001C08081FF91EF919F918F912F910F9093
:100CE0000BBE0F900FBE0F901F9018951F920F9282
:100CF0000FB60F9211240BB60F922F933F934F9381
:100D00005F936F937F938F939F93AF93BF93EF9373
:100D1000FF9386EC93E001DEFF91EF91BF91AF91DD
:100D20009F918F917F916F915F914F913F912F9103
:100D30000F900BBE0F900FBE0F901F90189586EC72
:100D400093E085DD21E0892B09F420E0822F0895CE
:100D50001092C9031092C80388EE93E0A0E0B0E0BF
:100D60008093CA039093CB03A093CC03B093CD039D
:100D700081E992E09093C7038093C6038DEC90E0E5
:100D80009093D3038093D2038CEC90E09093D5039F
:100D90008093D40388EC90E09093D7038093D6039C
:100DA00089EC90E09093D9038093D8038AEC90E08B
:100DB0009093DB038093DA038EEC90E09093DD0355
:100DC0008093DC031092DF031092E0031092E103A2
:100DD0001092E20308951F920F920FB60F92112402
:100DE0000BB60F922F938F939F93EF93FF93E09106
:100DF0007304F09174048081E0917904F0917A0495
:100E000082FD12C0908180917C048F5F8F7320914E
:100E10007D04821751F0E0917C04F0E0ED59FB4F26
:100E2000958F80937C0401C08081FF91EF919F9109
:100E30008F912F910F900BBE0F900FBE0F901F90B0
:100E400018951F920F920FB60F9211240BB60F92A6
:100E50002F933F934F935F936F937F938F939F93C2
:100E6000AF93BF93EF93FF9383E694E056DDFF913A
:100E7000EF91BF91AF919F918F917F916F915F9112
:100E80004F913F912F910F900BBE0F900FBE0F907F
:100E90001F90189583E694E0DADC21E0892B09F4B1
:100EA00020E0822F0895109266041092650488EE67
:100EB00093E0A0E0B0E08093670490936804A0936F
:100EC0006904B0936A0481E992E09093640480938A
:100ED000630485ED90E09093700480936F0484ED3B
:100EE00090E0909372048093710480ED90E0909371
:100EF00074048093730481ED90E090937604809362
:100F0000750482ED90E0909378048093770486EDE9
:100F100090E090937A048093790410927C0410926C
:100F20007D0410927E0410927F040895CF92DF9288
:100F3000EF92FF920F931F93CF93DF937C016A018F
:100F4000EB0100E010E00C151D0571F06991D7016F
:100F5000ED91FC910190F081E02DC7011995892B4D
:100F600019F00F5F1F4FEFCFC801DF91CF911F9195
:100F70000F91FF90EF90DF90CF900895611571056C
:100F800081F0DB010D900020E9F7AD0141505109DE
:100F9000461B570BDC01ED91FC910280F381E02DA3
:100FA000199480E090E00895E9CFDC01ED91FC9187
:100FB0000190F081E02D19946DE972E0DFCF0F937D
:100FC0001F93CF93DF93EC01D9DF8C01CE01F4DFC7
:100FD000800F911FDF91CF911F910F9108958F92F4
:100FE0009F92AF92BF92DF92EF92FF920F931F9367
:100FF000CF93DF93CDB7DEB7A1970FB6F894DEBFDE
:101000000FBECDBF7C01F42FD52ECB0119A222300B
:1010100008F42AE08E010F5D1F4F822E912CA12C27
:10102000B12C6F2F7D2DA501940180D7F22FD32EE7
:10103000CA01015011096A3014F4E0E301C0E7E38A
:10104000E60FD801EC93232B242B252B51F7B80165
:10105000C70194DFA1960FB6F894DEBF0FBECDBFD7
:10106000DF91CF911F910F91FF90EF90DF90BF9094
:10107000AF909F908F900895CF92DF92EF92FF9262
:101080000F931F93CF93DF93EC016A017B0121152E
:10109000310579F4E881F9810190F081E02D642F28
:1010A000DF91CF911F910F91FF90EF90DF90CF9044
:1010B00019942A303105D9F477FF18C06DE275DF35
:1010C0008C0144275527BA014C195D096E097F0927
:1010D0002AE0CE0184DF800F911FDF91CF911F9115
:1010E0000F91FF90EF90DF90CF9008952AE0B70125
:1010F000A601CE01DF91CF911F910F91FF90EF904C
:10110000DF90CF906CCF9A01AB01662757FD6095B9
:10111000762FB2CF0F931F93CF93DF93EC019A01F9
:10112000AB01662757FD6095762FA6DF8C01CE01B7
:1011300043DF800F911FDF91CF911F910F91089591
:10114000FC0180819181EBC7CF93DF93EC01888113
:101150009981009709F0E3D7198218821D821C82B9
:101160001B821A82DF91CF9108950F931F93CF9323
:10117000DF93EC018B016F5F7F4F888199810E9423
:101180001E11009731F0998388831B830A8381E0C5
:1011900001C080E0DF91CF911F910F910895CF930F
:1011A000DF93EC0188819981892B29F08A819B81C9
:1011B0008617970758F4CE01D8DF882341F08C8139
:1011C0009D81892B19F4E881F981108281E0DF91FA
:1011D000CF910895EF92FF920F931F93CF93DF93D8
:1011E000EC017B018A01BA01DADF811103C0CE0173
:1011F000ABDF07C01D830C83B701888199810E94F2
:101200004512CE01DF91CF911F910F91FF90EF908A
:101210000895FC01118210821382128215821482B9
:101220006115710551F0FB0101900020E9F7AF0154
:1012300041505109461B570BCDCF08950F931F9373
:10124000CF93DF938C01EB01FC01808191810097AA
:1012500091F0428153812C813D814217530750F018
:10126000688179810E9445128C819D81F801958366
:10127000848312C054D788819981F8019183808337
:101280008A819B81938382838C819D8195838483D2
:10129000198218821B821A821D821C82DF91CF91D3
:1012A0001F910F910895CF93DF93EC01FB018617F7
:1012B000970751F0608171816115710521F04481BA
:1012C000558188DF01C040DFCE01DF91CF910895C5
:1012D000FC01118210821382128215821482E3CFE4
:1012E000CF93DF93EC018617970709F0A7DFCE01B4
:1012F000DF91CF910895CF93DF93EC0161157105D4
:1013000059F0FB0101900020E9F7AF01415051096C
:10131000461B570B5FDF01C017DFCE01DF91CF9176
:101320000895EF92FF920F931F93CF93DF93EC01F9
:101330007B010C811D816115710511F480E015C0E0
:101340004115510589F0040F151FB80128DF8823C6
:10135000A9F3288139818C819D81B701820F931F68
:101360000E9445121D830C8381E0DF91CF911F9174
:101370000F91FF90EF900895CF93DF931F921F92EC
:10138000CDB7DEB769831A8241E050E0BE016F5FDE
:101390007F4FC7DF0F900F90DF91CF910895FC0131
:1013A00024813581232B31F421E061157105A1F0F1
:1013B000FB0108C0FC01808191816115710531F448
:1013C00021E0FC018081882339F005C00E943C1295
:1013D00021E0892B09F020E0822F0895CF93DF933D
:1013E000FC01848195814817590778F4C081D18127
:1013F000772767FD7095CE01840F951F0E943112EB
:10140000009719F08C1B9D0B02C08FEF9FEFDF91AF
:10141000CF91089540E050E0E1CFBF92CF92DF92AC
:10142000EF92FF920F931F93CF93DF936C017B0199
:10143000EA0189012417350720F48D2FE901042FD3
:10144000182F6FE972E0C601E4DED70114968D9182
:101450009C911597C817D907C0F48017910708F415
:101460008C01D701ED91FC911197E00FF11FB08035
:1014700010826D917C916C0F7D1FC6013CDFD701FE
:10148000ED91FC91E00FF11FB082C601DF91CF9189
:101490001F910F91FF90EF90DF90CF90BF90089534
:1014A000FC0180819181009709F0ACC760E070E099
:1014B000CB0108950895BAD0FDDF0E945D01C4E517
:1014C000D4E0F2D82097E9F3EFD9FBCF1F920F9227
:1014D0000FB60F9211242F933F938F939F93AF9347
:1014E000BF938091010590910205A0910305B091F1
:1014F00004053091000523E0230F2D3720F40196D9
:10150000A11DB11D05C026E8230F0296A11DB11D26
:10151000209300058093010590930205A093030595
:10152000B09304058091050590910605A0910705EB
:10153000B09108050196A11DB11D809305059093FA
:101540000605A0930705B0930805BF91AF919F9141
:101550008F913F912F910F900FBE0F901F90189574
:101560002FB7F894609101057091020580910305F1
:10157000909104052FBF08953FB7F8948091050519
:1015800090910605A0910705B091080526B5A89B86
:1015900005C02F3F19F00196A11DB11D3FBF662761
:1015A000782F892F9A2F620F711D811D911D42E0A6
:1015B000660F771F881F991F4A95D1F708958F925C
:1015C0009F92AF92BF92CF92DF92EF92FF926B0108
:1015D0007C01D2DF4B015C01C114D104E104F104B0
:1015E000E1F06CD1C9DF681979098A099B09683E65
:1015F00073408105910580F321E0C21AD108E1080A
:10160000F10888EE880E83E0981EA11CB11CC1145D
:10161000D104E104F10431F7DFCFFF90EF90DF90C8
:10162000CF90BF90AF909F908F900895789484B59D
:10163000826084BD84B5816084BD85B5826085BDCE
:1016400085B5816085BDEEE6F0E0808181608083B4
:10165000E1E8F0E010828081826080838081816097
:101660008083E0E8F0E0808181608083E1EBF0E05E
:10167000808184608083E0EBF0E080818160808302
:10168000E1E9F0E0808182608083808181608083F5
:10169000E0E9F0E0808181608083E1EAF0E0808130
:1016A00082608083808181608083E0EAF0E08081D5
:1016B00081608083E1E2F1E08081826080838081CB
:1016C00081608083E0E2F1E0808181608083EAE7ED
:1016D000F0E080818460808380818260808380816B
:1016E000816080838081806880831092C10008952A
:1016F000863308F0865320917B00982F9870277FBF
:10170000922B90937B0087702091140290E4299F84
:1017100090011124822B80937C0080917A00806458
:1017200080937A0080917A0086FDFCCF80917800CA
:101730002091790090E0922B089590E0FC01319780
:10174000E231F10508F04BC0E058FF4F2DC4809105
:1017500080008F7703C0809180008F7D8093800010
:10176000089580918000877FF9CF84B58F7702C07C
:1017700084B58F7D84BD08958091B0008F7703C0BC
:101780008091B0008F7D8093B0000895809190008B
:101790008F7707C0809190008F7D03C0809190006B
:1017A000877F8093900008958091A0008F7707C075
:1017B0008091A0008F7D03C08091A000877F8093DF
:1017C000A0000895809120018F7707C080912001AB
:1017D0008F7D03C080912001877F80932001089531
:1017E000CF93DF9390E0FC01E659FE4F2491FC017A
:1017F000E055FE4F8491882349F190E0880F991FAE
:10180000FC01E05FFD4FA591B4918A509E4FFC0111
:10181000C591D4919FB7611108C0F8948C9120951F
:1018200082238C93888182230AC0623051F4F89419
:101830008C91322F309583238C938881822B8883DF
:1018400004C0F8948C91822B8C939FBFDF91CF9131
:1018500008950F931F93CF93DF931F92CDB7DEB7F9
:10186000282F30E0F901EC5DFE4F8491F901E65933
:10187000FE4F1491F901E055FE4F04910023C1F091
:10188000882319F0698359DF6981E02FF0E0EE0FBA
:10189000FF1FEA50FE4FA591B4919FB7F8948C9129
:1018A000611103C01095812301C0812B8C939FBFD0
:1018B0000F90DF91CF911F910F9108950895CF92CE
:1018C000DF92EF92FF920F931F93CF93DF936C0100
:1018D0008B017A01EC01C65FDA4F888187FF04C073
:1018E000FB011182108223C02CE02C9DC0012D9D94
:1018F000900D11242881AC01420F511D27FD5A95EE
:101900002091090530E0421753078CF42881AC017F
:10191000420F511D27FD5A959A01FA01EE0FFF1F44
:10192000E20FF31FE25FFA4F208126FD19C0888184
:101930008F5F88838CE08C9D90018D9D300D1124EC
:101940008881A901480F511D87FD5A95809109058D
:1019500090E048175907ACF488818C3034F111C0FD
:101960002881820F911D27FD9A95FC01EE0FFF1F24
:10197000E80FF91FE25FFA4F808160E08F7369DF43
:10198000D6CFF80180819181049680349C4918F467
:1019900080E49CE904C0F801808191810496F701FC
:1019A000918380838FEF888340C0F801808191818B
:1019B0004881B901640F711D47FD7A95AB01FB01A8
:1019C000EE0FFF1FE40FF51FE25FFA4F41815281D6
:1019D000840F951FF701918380838881A901480FA7
:1019E000511D87FD5A95FA01EE0FFF1FE40FF51FF9
:1019F000E25FFA4F808186FF18C08881280F311D71
:101A000087FD3A95F901EE0FFF1FE20FF31FE25F2A
:101A1000FA4F808161E08F73DF91CF911F910F9119
:101A2000FF90EF90DF90CF9014CFDF91CF911F9177
:101A30000F91FF90EF90DF90CF9008951F920F923B
:101A40000FB60F9211240BB60F922F933F934F9323
:101A50005F936F937F938F939F93AF93BF93EF9316
:101A6000FF9348E850E064E870E081E090E027DF11
:101A7000FF91EF91BF91AF919F918F917F916F9166
:101A80005F914F913F912F910F900BBE0F900FBE22
:101A90000F901F9018951F920F920FB60F9211245E
:101AA0000BB60F922F933F934F935F936F937F9358
:101AB0008F939F93AF93BF93EF93FF9348E950E0C9
:101AC00064E970E082E090E0FADEFF91EF91BF916F
:101AD000AF919F918F917F916F915F914F913F91C6
:101AE0002F910F900BBE0F900FBE0F901F90189567
:101AF0001F920F920FB60F9211240BB60F922F93D5
:101B00003F934F935F936F937F938F939F93AF9385
:101B1000BF93EF93FF9348EA50E064EA70E083E0FC
:101B200090E0CDDEFF91EF91BF91AF919F918F91AA
:101B30007F916F915F914F913F912F910F900BBECD
:101B40000F900FBE0F901F9018951F920F920FB617
:101B50000F9211240BB60F922F933F934F935F93E5
:101B60006F937F938F939F93AF93BF93EF93FF9365
:101B700048E251E064E271E080E090E0A0DEFF9195
:101B8000EF91BF91AF919F918F917F916F915F91F5
:101B90004F913F912F910F900BBE0F900FBE0F9062
:101BA0001F901895209109052033A0F431E0320FE1
:101BB00030930905FC012083822F90E0FC01EE0F99
:101BC000FF1FE80FF91FE25FFA4F88EB9BE092835B
:101BD000818308952FEFFC0120830895DF92EF9217
:101BE000FF920F931F93CF93DF93EC01D62E7A01D0
:101BF00089018881803308F066C061E08D2DF0DDB9
:101C00008881A82FB0E0FD01EE0FFF1FEA0FFB1F38
:101C1000E25FFA4F2D2D2F739081907C922B908351
:101C200060E272E06E197F0977FF02C06D5F7F4F3F
:101C30007595679575956795698340E659E0401BF2
:101C4000510B57FF02C04D5F5F4F55954795559516
:101C500047954A836CE05ED19CE0899FB0011124D6
:101C600020E030E0A901460F571FFA01EE0FFF1FD9
:101C7000E40FF51FE25FFA4F908196FD18C02F5FC9
:101C80003F4F2C30310571F790E08130910521F5FF
:101C90001092800082E08093810010928500109263
:101CA0008400B19A80916F00826080936F00888178
:101CB00090E0FC01EE0FFF1FE80FF91FE25FFA4F03
:101CC0008081806480838881DF91CF911F910F9103
:101CD000FF90EF90DF9008958230910569F41092A3
:101CE000900082E0809391001092950010929400F1
:101CF00088BB80937100DBCF8330910569F410922B
:101D0000A00082E08093A1001092A5001092A40090
:101D100089BB80937200CBCF892B49F610922001AA
:101D200082E08093210110922501109224018ABB48
:101D300080937300BCCF20E639E040E252E04ECF02
:101D4000FC018081803370F5918128E830E0291B07
:101D5000310997FD3395220F331F220F331F62176E
:101D600073077CF0928128E532E0291B310997FD49
:101D70003395220F331F220F331F621773070CF4A2
:101D80009B0122503109220F331F4FB7F89490E086
:101D9000FC01EE0FFF1FE80FF91FE25FFA4F3283DD
:101DA00021834FBF08954F925F926F927F92AF92BF
:101DB000BF92CF92DF92EF92FF920F931F93CF9338
:101DC000DF93EC01603282E078070CF03FC077FDD2
:101DD00006C0653B71052CF064EB70E002C060E06A
:101DE00070E0898128E830E0281B310987FD3395B0
:101DF000220F331F220F331F5901CC24B7FCC0948C
:101E0000DC2C882777FD8095982F2A8148E552E0C1
:101E1000421B510927FD5395440F551F440F551F71
:101E20002A01662457FC6094762C7F926F925F9211
:101E30004F9214EBE12EF12C00E010E020E030E0B6
:101E4000A90114D00F900F900F900F90CE01DF9149
:101E5000CF911F910F91FF90EF90DF90CF90BF90A7
:101E6000AF907F906F905F904F906ACF4F925F924C
:101E70006F927F92AF92BF92CF92DF92EF92FF92DA
:101E80000F931F93CF93DF93CDB7DEB729013A01AC
:101E9000621B730B840B950B2A893B894C895D89E6
:101EA0002A193B094C095D092A8B3B8B4C8B5D8BB6
:101EB0009B01AC016A897B898C899D891CD0E418BF
:101EC000F50806091709A801970152D02A0D3B1DF4
:101ED0004C1D5D1DCA01B901DF91CF911F910F917A
:101EE000FF90EF90DF90CF90BF90AF907F906F907A
:101EF0005F904F900895DB018F939F935BD0BF91CC
:101F0000AF91A29F800D911DA39F900DB29F900D48
:101F100011240895991B79E004C0991F961708F0C1
:101F2000961B881F7A95C9F780950895A1E21A2E0D
:101F3000AA1BBB1BFD010DC0AA1FBB1FEE1FFF1F6D
:101F4000A217B307E407F50720F0A21BB30BE40BBD
:101F5000F50B661F771F881F991F1A9469F7609504
:101F60007095809590959B01AC01BD01CF010895BE
:101F7000052E97FB16F400940FD057FD05D0D6DF41
:101F800007FC02D046F408C0509540953095219545
:101F90003F4F4F4F5F4F0895909580957095619595
:101FA0007F4F8F4F9F4F0895EE0FFF1F0590F491C5
:101FB000E02D19940DD0A59F900DB49F900DA49F76
:101FC000800D911D112408950790F691E02D19942C
:101FD000A29FB001B39FC001A39F700D811D11246A
:101FE000911DB29F700D811D1124911D0895CF93F5
:101FF000DF938230910510F482E090E0E091A0053B
:10200000F091A10520E030E0A0E0B0E0309739F198
:102010004081518148175907B8F04817590771F4A2
:1020200082819381109729F013969C938E93129737
:102030002CC09093A1058093A00527C021153105E0
:1020400031F04217530718F0A901DB0101C0EF017D
:102050009A01BD01DF010280F381E02DD7CF211568
:102060003105F9F0281B390B2430310580F48A81C1
:102070009B816115710521F0FB019383828304C06C
:102080009093A1058093A005FE01329644C0FE0105
:10209000E20FF31F819391932250310939832883F2
:1020A0003AC020919E0530919F05232B41F4209149
:1020B00002023091030230939F0520939E052091E8
:1020C0000002309101022115310541F42DB73EB7D0
:1020D0004091040250910502241B350BE0919E05AE
:1020E000F0919F05E217F307A0F42E1B3F0B281772
:1020F000390778F0AC014E5F5F4F2417350748F081
:102100004E0F5F1F50939F0540939E0581939193BF
:1021100002C0E0E0F0E0CF01DF91CF910895CF93CE
:10212000DF93009709F487C0FC0132971382128273
:10213000C091A005D091A105209781F42081318123
:10214000280F391F80919E0590919F058217930754
:1021500079F5F0939F05E0939E056DC0DE0120E0C8
:1021600030E0AE17BF0750F412964D915C91139773
:102170009D014115510509F1DA01F3CFB383A28323
:1021800040815181840F951F8A179B0771F48D91AF
:102190009C911197840F951F0296918380831296CC
:1021A0008D919C911397938382832115310529F496
:1021B000F093A105E093A0053EC0D9011396FC93CE
:1021C000EE9312974D915D91A40FB51FEA17FB078F
:1021D00079F480819181840F951F0296D90111961F
:1021E0009C938E938281938113969C938E931297E6
:1021F000E0E0F0E08A819B81009719F0FE01EC019C
:10220000F9CFCE01029628813981820F931F209148
:102210009E0530919F052817390769F4309729F4F6
:102220001092A1051092A00502C013821282D093D1
:102230009F05C0939E05DF91CF9108956F927F9285
:102240008F929F92AF92BF92CF92DF92EF92FF92C6
:102250000F931F93CF93DF93EC01CB01209779F479
:10226000DF91CF911F910F91FF90EF90DF90CF9072
:10227000BF90AF909F908F907F906F90B8CEFE01EF
:10228000E60FF71F9E0122503109E217F30708F409
:10229000A8C0D9010D911C91119706171707B0F02E
:1022A0000530110508F49BC0A80144505109461798
:1022B000570708F494C002501109061B170B01932D
:1022C00011936D937C93CF012ADF89C05B01A01A23
:1022D000B10A4E01800E911EA091A005B091A105FA
:1022E000612C712C60E070E0109709F449C0A815CA
:1022F000B905C9F5ED90FC901197670142E0C40E55
:10230000D11CCA14DB0478F147018A189B086401C8
:1023100042E0C40ED11C1296BC9012971396AC9159
:10232000B5E0CB16D10440F0B282A38391828082C3
:10233000D9018D939C9309C00E5F1F4F0E0D1F1D79
:10234000F90111830083EB2DFA2F6115710531F02E
:10235000DB011396FC93EE93129741C0F093A10515
:10236000E093A0053CC06D917C91119766167706AD
:1023700008F43B01BD0112960D90BC91A02DB4CF85
:1023800060919E0570919F0568157905E9F46816BE
:102390007906D0F440910002509101024115510597
:1023A00041F44DB75EB76091040270910502461B7F
:1023B000570BE417F507A8F4F0939F05E0939E05EB
:1023C000F901918380830BC012DE7C01009749F0F4
:1023D000A801BE013DD0CE01A2DEC70104C0CE01DE
:1023E00002C080E090E0DF91CF911F910F91FF90AC
:1023F000EF90DF90CF90BF90AF909F908F907F90A5
:102400006F9008951F93FC0199278827BC01E894D9
:1024100011911032E9F3193010F01E30C8F31B325D
:1024200049F01D3241F4689405C036D0610F711D2A
:10243000811D911D119110531A30B8F33EF49095FF
:102440008095709561957F4F8F4F9F4F1F91089595
:10245000FB01DC0102C001900D9241505040D8F7C1
:102460000895FC018191861721F08823D9F79927D7
:1024700008953197CF010895FB01DC018D91019002
:1024800080190110D9F3990B0895FB01DC0101902B
:102490000D920020E1F70895592F482F372F262F4E
:1024A000660F771F881F991F660F771F881F991F58
:1024B000620F731F841F951F660F771F881F991F58
:1024C000089512E0C2E3D2E000E005C022970109BE
:1024D000FE010BBF79DDC433D10780E00807B1F7F7
:0424E000F894FFCF9E
:1024E4000000A205200064002C0100000000000090
:1024F4000000040001506F6B656D6F6E20474F0044
:102504004B0044444444526563657074005700535F
:102514003B005859413B004361707465757220411A
:1025240076616E742044726F6974004361707465DF
:102534007572204176616E74204761756368650029
:1025440043617074657572204172726965726520A9
:1025540044726F69740043617074657572204172CE
:1025640072696572652047617563686500000000E3
:1025740000CF049607270440043204AE040D0A0079
:0E2584006E616E00696E66006F7666002E0056
:00000001FF
